:020000040800F2
:1000000028050020D500000821180008B9160008AE
:1000100000000000000000000000000000000000E0
:10002000000000000000000000000000DD180008D3
:10003000000000000000000069180008DF18000838
:10004000E7000008E7000008E7000008E7000008F4
:10005000E7000008E7000008E7000008E7000008E4
:1000600000000000E7000008E7000008E7000008C3
:10007000E7000008E7000008E7000008E7000008C4
:10008000E7000008E7000008E700000800000000A3
:10009000E7000008E7000008E7000008E7000008A4
:1000A000E7000008E7000008E7000008091F000853
:1000B000E7000008BD160008000000000000000076
:1000C0000348854600F0C4FA004800472D2900087F
:1000D000280500200448804704480047FEE7FEE763
:1000E000FEE7FEE7FEE7FEE781190008C100000811
:1000F00030B50B46014600202022012409E00D46C0
:10010000D5409D4205D31D469540491B2546954047
:1001100040191546521E002DF1DC30BDF0B51FB45C
:100120000646002082B005464024019100901BE065
:10013000019922460F46304600F034F9049A059B97
:10014000801A994110D310461946224600F01AF938
:10015000361A8F410197224601200021009F00F0AE
:1001600011F938184D4100902046641E0028DFDC4C
:10017000019B00982946324607B0F0BDF0B51FB488
:1001800088B00B990998002448400999C00F49008C
:1001900049080991C0070B990090490049080B9143
:1001A00009990898A64608431CD00B990A98084359
:1001B00018D0099801244000420D4800410D0998CB
:1001C00024050003000B204309900B980003000B4B
:1001D00020430B9050181C494018002201901446EF
:1001E000104605E0002001460DB0F0BD032801DAFD
:1001F000034600E003239C46C11A0AAE0AE05F00F2
:1002000008ADED5B4F00F75B7D430027AA187C41EA
:10021000491C5B1E6145F2DD410004AB5A522104CA
:10022000120C0A43240C401C0828DFDB01980290C2
:100230000099704601910090059B049A07990698D1
:1002400000F0CEF8D0E700000DFCFFFFF0B50C4643
:100250005C4085B0E40FE40703944C00002664087A
:1002600059009446490802460296224321D062462C
:100270000A431ED06200570D4A000E032303550D9A
:10028000012402462C492405781B1B0B360B401811
:1002900023432643614600901C46501AB44103D3C1
:1002A0000098401C009002E0921800985B410028E2
:1002B00003DA0020014605B0F0BD00200121090548
:1002C0000746864611E064461D46141BB54106D319
:1002D0006546521BB341744607430C43A646CD07FF
:1002E00040084908284392185B4105460D43EAD16E
:1002F0001046184313D060461946504071400843D9
:1003000006D06046101AB34106D20122002306E04F
:1003100000220123DB0702E00122D24353100098A0
:1003200074460105381C6141029C039D0019694116
:1003300000F049F8BFE70000FD03000070B54B0076
:100340005B0803430BD04B005C0D0026334665422F
:10035000B341D417AD1AA34102DB0020014670BDA2
:1003600012053018514170BD0EB5054902910021AA
:1003700000910A460B46019100F032F803B000BD2F
:100380003304000010B5202A04DB0146203A9140D6
:10039000002010BD914020239C1A0346E3401943DE
:1003A000904010BD10B5202A04DB0846203AD0400A
:1003B000002110BD0B46D340D0402024A21A91400A
:1003C0000843194610BD10B5002B08DA0024401C64
:1003D000614192185B411A4301D14008400010BDB1
:1003E000F0B51FB482B005460C0003D0084601F0FA
:1003F000A5FD02E001F0A2FD20300246009021465A
:100400002846FFF7BFFF049B059A04460F46184392
:100410001143084314D0184610431BD000984021C4
:100420000A1A18460599FFF7BDFF05460E46009AC1
:1004300005990498FFF7A6FF084305D0012004E0C2
:100440002046394607B0F0BD0020C11705430E43D2
:100450002C43374300990E986305401A7905E40A46
:1004600000220C43FD0A0A3002D500200146E9E7CC
:100470000105101969410C9C0D9D00196941FFF798
:10048000A2FFDFE7F0B507460846584087B0C00F27
:10049000049048000E46590040084908BC1A88419B
:1004A00005D2384631461E4617460B4602465800CE
:1004B000400810434CD0300D039040055900400DCA
:1004C000490D0590401A0290402872DA1803012164
:1004D000000B09050843019004980092002805D0FC
:1004E00001995242002088410092019002984021D7
:1004F0000A1A01990098FFF745FF05460C466B461E
:1005000007CB00F0B7F8C0197141039A0E0D002314
:10051000D71756401A467A40164344D0049A002A08
:100520002DD0029A012A039A15DC1205C01A9141B6
:1005300001263605001C7141D20F059ED20700939B
:10054000019202962A462346FFF74AFF07B0F0BD04
:1005500038463146FAE71605224A0F46B218C01A45
:10056000B74101210905001C4F4100187F41114688
:1005700018187941E20F10436D19644113E0E20746
:100580006D0815436408C2071443039A0126120537
:10059000C01A91413605001C7141CE074008304316
:1005A0004908C01851412A462346FFF70CFFCDE702
:1005B000FFE7049801224000C117121A00238B4163
:1005C00004983146C417381AA141EEE730B401242B
:1005D000E407634030BC55E730B40124E4076140D0
:1005E00030BC4FE70000E0FF4A0009030123090B7C
:1005F0001B0519430A4B10B5520D9A4202DA00202E
:10060000014610BD064B34339A4203DC9A1AFFF7B9
:10061000C9FE10BD034BD218FFF7B4FE10BD000099
:10062000FF030000CDFBFFFF10B5002904DB012410
:10063000E40740428C412146002B04DB1C46012389
:10064000DB075242A341994200D1904210BD000005
:10065000064C0125064E05E0E36807CC2B430C3C15
:1006600098471034B442F7D3FFF72EFDAC290008A9
:10067000CC29000810B5202A06DBCB170846203A03
:100680001041C1170B4306E00B461341D040202414
:10069000A21A91400843194610BD000070B500240D
:1006A000024620325179022903D00421C16301247A
:1006B0003CE001680B680E25AB430B6001680B68DA
:1006C0005B085B000B601A4B0168994201D1012164
:1006D00021E0174B1433994201D110211BE0144B38
:1006E0002833994201D1891515E0114B3C339942C9
:1006F00001D189140FE00E4B5033994202D10121F0
:10070000090408E00A4B6433994202D1012109052A
:1007100001E001210906064B083B59600121517196
:1007200000211171816B002900D08847204670BDDF
:100730000800024031B500F0D7F8044600F0D4F8C4
:100740000099001B8842F9D338BD0000F8B500239A
:100750000124A7E027469F403A4070D04D68022D03
:1007600001D0122D14D1DD08AD002D1800952D6A91
:100770005E07AC46F50E0F26AE46AE406546B54365
:10078000AC460E697546AE4065462E43009D2E620E
:100790004D68012D05D0022D03D0112D01D0122D51
:1007A00016D185680326AC465D00AE46AE40654670
:1007B000B543AC46CE687546AE4065462E4386606E
:1007C00046680D79BE43ED06ED0F9D40354345600B
:1007D00006685F000325BD40AE46AE430D79B446C2
:1007E000AE07B60FBE4065462E430660C668754626
:1007F000AE438D68BD403543C5604D68ED0050D5B2
:100800002B4D6E6B26436E639E082A4DB6007519FC
:10081000AC46AD689E07360F0F27B740BD4305278E
:100820003F07B84201D100271AE0234FB84201D157
:10083000012715E0214FB84202D1022710E030E035
:100840001F4FB84201D103270AE01E4FB84201D121
:10085000042705E01C4FB84201D1052700E0062718
:10086000B7402F436546AF60184D2E684F689643DA
:10087000FF0300D516432E606E684F689643BF0392
:1008800000D516436E60AE684F689643FF0200D5F0
:100890001643AE60EE684F689643BF0200D516431C
:1008A000EE605B1C0A681546DD4000D052E7F8BDDB
:1008B00000100240000001400004005000080050F9
:1008C000000C005000100050001C005000040140BB
:1008D0000069084000D001207047002A01D08161E2
:1008E000704781627047000001480068704700004F
:1008F0000000002002480168491C016070470000A8
:100900000000002010B50648016840221143016034
:10091000002000F007F800F019F8002010BD0000DA
:100920000020024010B5044607487D21C900006838
:10093000FFF7DEFB00F0B4FC00222146501E00F061
:100940002BF8002010BD00000400002010B50C485A
:10095000416B012211434163816B020411438163A6
:1009600000221146501F00F017F800221146901E79
:1009700000F012F800221146501E00F00DF810BDD4
:1009800000100240C106C90E0120884001490860DC
:100990007047000000E100E010B500F043FF10BD1B
:1009A000F8B54E49074601250020ED034A4B4B4A56
:1009B0004031082F7BD00EDC012F48D0022F60D0B1
:1009C000042F22D1CC680326B602344065D07F02C2
:1009D000BC424ED064E0102F77D0012603243604A9
:1009E0002404202F09D0FF3F012F0ED1C9682140D8
:1009F00053D07400A1423CD06BE00B6909692140DF
:100A0000B14203D199052EE02846F8BD01256D04B9
:100A1000A94203D19907F8D53148F8BDA142FCD1CC
:100A200011688903F9D511680320000501400120F0
:100A30000005091A09D0091A05D0814201D12948B7
:100A4000F8BD2948F8BD2948F8BD2948F8BDCC684B
:100A5000A407A40F0AD0022C0BD0012C0ED0032C1B
:100A6000F4D1096989050029CEDBF8BD00F0C8F989
:100A7000F8BD11684907FBD51846F8BD00F0D0F95C
:100A8000F8BDCC680C26344007D0082CF1D0042CDB
:100A9000F4D00C2CE5D0F8BD09E000F0A1F9FAE79C
:100AA000012292029442E9D0B442DAD0F3E7C96855
:100AB000032424032140F0D001256D036C10A942CA
:100AC000D7D0A142DAD0E6E7FFE7916B4902E4D440
:100AD000E1E7B142D2D0DEE70024F400001002408A
:100AE0008890000020A1070000093D0040420F004F
:100AF00080841E00F8B504460078594D800672D5F2
:100B0000574E0027403EB06BC00004D4B06BA9051F
:100B10000843B063012753480168C90511D401682F
:100B2000821511430160FFF7DFFE009005E0FFF73B
:100B3000DBFE0099401A642837D84A480068C0058F
:100B4000F5D532680321090560680A4001409142E9
:100B500008D08103890F032904D13168890301D5A5
:100B60000120F8BD2A69032109040A4022D0084067
:100B700090421FD0207880061CD528692A698843B6
:100B80000121C9040A432A612A698A432A6128612A
:100B9000C0050FD5FFF7A8FE009008E0FFF7A4FE00
:100BA0000099411A3048814201D90320F8BD2869D3
:100BB0008005F3D561688803800F032805D132686A
:100BC0000005824301400A433260286903226168BC
:100BD0001204114008432861002F04D0B16B01209A
:100BE00000078143B1632078C00705D0E868A16899
:100BF000800880000843E8602078800705D5E86811
:100C00000C218843E1680843E8602078400706D556
:100C1000E86803218902884321690843E860207855
:100C2000000706D5E8680321090388436169084382
:100C3000E8602088C00506D5E868032109048843D8
:100C4000A1690843E8602078000606D5E86803211A
:100C500089048843E1690843E8600020F8BD00008A
:100C6000401002400070004088130000F8B50546AF
:100C700053480E460068C007C00FB0420AD2504821
:100C8000016849084900314301600068C007C00F8E
:100C9000B0426FD128784B4C800705D5E068F02131
:100CA0008843A9680843E0602878C00752D0686884
:100CB000022817D0032818D02168012818D08905E8
:100CC000002957DAE168890889000143E160FFF7EC
:100CD0000BFE69680746022912D003291CD001299E
:100CE00026D033E021688903EAE721688901E7E734
:100CF0004907E5E7FFF7F8FDC11B3348814223D8D8
:100D0000E0680007800F0228F4D123E0FFF7ECFD34
:100D1000C11B2D48814217D8E0680007800F0328C7
:100D2000F4D117E0FFF7E0FDC11B274881420BD843
:100D3000E0680007800F0128F4D10BE0FFF7D4FD35
:100D4000C11B2148814201D90320F8BDE06800079A
:100D5000800FF3D11A480168C907C90FB1420BD9F6
:100D6000016849084900314301600068C007C00FAD
:100D7000B04201D00120F8BD2878400706D5E068D0
:100D8000072109028843E9680843E06028780007E2
:100D900007D5E0680721C90288432969C9000843CB
:100DA000E06000F03DF8E168084A0906090F515C6F
:100DB000C840074908600020FFF7B4FD0020F8BDD7
:100DC000002002400010024088130000882900081B
:100DD0000400002001480068704700000400002063
:100DE000044805490068C968044A4905490F515C2F
:100DF000C84070470400002000100240A1290008EC
:100E0000044805490068C968044A8904490F515CCF
:100E1000C84070470400002000100240A1290008CB
:100E200010B5184AD1680C20084004280BD00828B7
:100E300010D00C2810D050680004410F0120C003CE
:100E4000491C884010BD1068C00601D50E4810BD71
:100E50000E4810BD0E4810BD88020E4B000F185CE6
:100E60000902D368890F491CDB0301D5084A05E054
:100E70001268D20601D5044A00E0044A5043FFF745
:100E800037F910BD0010024000093D000024F400B5
:100E900000127A0098290008F8B504460078F24D4F
:100EA000C0074AD0E8680007800F022807D0E8682A
:100EB0000007800F032809D1E868C00306D5286819
:100EC00080033AD56068002873D036E0012062685C
:100ED0000004824203D129680143296011E00523FF
:100EE00001211B0489049A422A6802D10A432A601C
:100EF000F1E782432A602A6802400092286888430A
:100F00002860606800280CD0FFF7EEFC064604E07D
:100F1000FFF7EAFC801B64287ED828688003F7D599
:100F20000BE0FFF7E1FC064604E0FFF7DDFC801B69
:100F30006428F1D828688003F7D42078800741D549
:100F4000E8681F270007800F3F02012807D0E868E4
:100F50000007800F032809D1E868C00306D4286879
:100F6000400717D5E068012823D113E0E068002886
:100F700017D029680922914301432960FFF7B4FC87
:100F8000064604E0FFF7B0FC801B0228C4D828689E
:100F90004007F7D568682169B843090208436860CB
:100FA00010E02868400840002860FFF79DFC0646D6
:100FB00005E090E0FFF798FC801B0228ACD8286879
:100FC0004007F7D42078C00676D5E868A74E00071A
:100FD000800F0BD0A06900285DD02868FF21013167
:100FE00008432860FFF780FC074644E02868800536
:100FF00002D5A06900286ED0206A69683140884215
:1010000012D900F033FC0028AED16868216AB043E1
:1010100008436860686800E0BBE00002217F000AC6
:101020000906084368600FE06968B14301436960DD
:101030006868217F0002000A090608436860206A88
:1010400000F014FC00288FD1206A410B0120C0035E
:10105000491C8840E96809060A0F8549895CC8402F
:10106000844908600020FFF75DFC25E0FFF73CFCA9
:10107000C01B02288AD828688005F7D56868216ACD
:10108000B043084368606868217F0002000A0906CF
:101090000843686010E02968FF200130814329601F
:1010A000FFF722FC064604E0FFF71EFC801B022827
:1010B0006FD828688005F7D420786F4E000723D5B5
:1010C00060690028306910D0012108433061FFF7C2
:1010D0000BFC074605E0C5E0FFF706FCC01B022835
:1010E00057D830698007F7D50EE0400840003061DE
:1010F000FFF7FAFB074604E0FFF7F6FBC01B0228E8
:1011000047D830698007F7D42078400762D5A86BAC
:101110000027C00005D4A86B012109070843A86374
:10112000012756480168C90511D401688215114389
:101130000160FFF7D9FB009005E0FFF7D5FB0099B0
:10114000401A642825D84D480068C005F5D5FF2011
:10115000A2680130824203D131690143316111E05B
:1011600001218902002A07D005231B029A4203D1DC
:1011700032690A433261EFE7326982433261306992
:1011800088433061A06800280FD0FFF7ADFB0090C6
:1011900007E060E0FFF7A8FB0099411A3848814258
:1011A00059D830698005F5D50DE0FFF79DFB00901B
:1011B00006E0FFF799FB0099411A314881424AD86D
:1011C00030698005F5D4002F04D0A96B01200007F9
:1011D0008143A963606A002842D0E9680907890F42
:1011E00003293FD0012636060228286805D0B043DF
:1011F0002860FFF779FB04462FE0B0432860FFF733
:1012000073FB074604E0FFF76FFBC01B022822D8E0
:1012100028688001F7D4E16AA06AEA680843216B74
:10122000FD231B049A4311430843E86028683043B8
:101230002860FFF759FB044604E0FFF755FB001B4D
:10124000022808D828688001F7D509E0FFF74CFB91
:10125000001B022801D90320F8BD28688001F5D4BD
:101260000020F8BD0120F8BD0010024000E00000A1
:10127000882900080400002040100240007000404F
:1012800088130000042204490428086902D090430E
:10129000086170471043FBE700E000E07047000082
:1012A000094910B5401E884201D9012010BD074CE4
:1012B00060610321081F00F0B5FA0020A06107203B
:1012C0002061002010BD0000FFFFFF0000E000E0F3
:1012D00010B5FFF7E3FF10BD70B502462032137D55
:1012E000012B1BD001231375022454750468656813
:1012F0007026B5436560046865680E6835436560AF
:101300000468A5688026B543A560006884684968BC
:101310000C43846053750020107570BD022070BDB1
:1013200070B5040005D025462035687D002802D020
:1013300006E0012070BD00202875204600F00AF864
:1013400002206875211D206800F044FB01206875AB
:10135000002070BD00680449884204D10348816BB5
:1013600020221143816370470014004000100240A6
:101370000268D36801210B43D360006802680A4306
:1013800002600020704700000221024620325175A1
:101390000168086A054B184203D1086840084000FC
:1013A00008600120507500207047000011110000F6
:1013B00070477047F8B502680446D069116806079F
:1013C000360F07D1830605D58B0603D5204600F0DE
:1013D000E0FBF8BD95682023002E65D0EE07F60FE0
:1013E000FF2721370F4037435ED0C70706D0CF0510
:1013F00004D501271762E26E3A43E266820708D5F8
:10140000EA0706D0276802223A62E26E04273A43CE
:10141000E266420708D5EA0706D0256804222A6258
:10142000E26E02252A43E266020709D50A461A40FF
:10143000324305D0236808221A62E36E1343E36641
:10144000E26E002AC5D0800604D5880602D5204663
:1014500000F09FFBE06E000703D420688068400620
:101460001CD5204600F086FB20688168490611D50E
:10147000826840218A438260606E00280AD01D493C
:101480008163606EFFF70AF90028A2D0606E816B5D
:101490008847F8BD2046FFF78CFFF8BD2046FFF7D0
:1014A00088FF0020E066F8BD2646C7026036002FA0
:1014B0000ADA6D0208D50120000510627372B3725A
:1014C0002046FFF775FFF8BD050605D50D0603D5C7
:1014D000204600F0B5FCF8BD4006FCD54806FAD51C
:1014E0002046146840218C431460737200F0E3F8C6
:1014F000F8BD0000611B000870B5040005D025464A
:101500006035687A002802D006E0012070BD002016
:101510002872204600F026F82420687220680168AE
:10152000490849000160606A002802D0204600F0A6
:1015300081FA204600F06CFB0128E7D02068416862
:101540000922D20291434160206881682A22914396
:10155000816020680168012211430160204600F08B
:10156000CFFA70BD70B505681D4E052000221D49DB
:1015700002230324000786B0B54214D18D6B5E04AC
:1015800035438D630C21009106210491039401934E
:1015900002926946FFF7DAF8002211461D20FFF794
:1015A000FBF91D2018E0104EB54217D14D6B0126F6
:1015B000B60335434D630321490200910421049190
:1015C0000394019302926946FFF7C0F80022114686
:1015D0001B20FFF7E1F91B20FFF7D4F906B070BD1F
:1015E0000048004000100240003801407047FFB53D
:1015F000064604466036707A83B00D46202858D1DE
:10160000002D0CD00598002809D00120A168000306
:10161000814207D12069002804D1E80702D00120C7
:1016200007B0F0BD307A012843D00120307200208D
:10163000E06621207072FFF757F901902746403786
:10164000059838820598788218E0788A401E78825A
:1016500006980090002280212046019B00F023FC88
:10166000002818D10120A1680003814202D120691D
:10167000002812D02168287888626D1C788A00289A
:10168000E3D106980090002240212046019B00F003
:101690000AFC002808D00320C2E728882168C0057A
:1016A000C00D8862AD1CE9E7202070720020307206
:1016B000B6E70220B4E77047FEE7000010B5024825
:1016C000FFF778FE10BD00000C00002030B5154873
:1016D00087B0C16A01242143C162C16A21400591DA
:1016E000C26A02210A43C262C06A0F4D08400590D7
:1016F000002210212846FFF7F0F801941020002462
:1017000000900294694628460394FFF71FF82020B2
:1017100000900194694602942846FFF717F807B035
:1017200030BD0000001002400004005010B50D480C
:101730000B490160E1214902416000218160C160E3
:10174000016181610C22016242614162FFF7D4FEB6
:10175000002803D0442104A000F0DEFB10BD0000EF
:10176000004800400C0000202E2E2F5372632F756E
:10177000736172742E6300001CB510480E4901603D
:1017800000240F49846041607D214901C160FFF759
:10179000C7FD002803D03C210AA000F0BDFB009447
:1017A000694606480194FFF797FD002803D04321BE
:1017B00004A000F0B1FB1CBD00140040EC000020B0
:1017C0001F0300002E2E2F5372632F74696D2E633A
:1017D0000000000010B50D480B490160E1214902ED
:1017E000416000218160C16001618161C1610C22A1
:1017F000016242614162FFF77FFE002803D0592158
:1018000003A000F089FB10BD003801407C000020DF
:101810002E2E2F5372632F75736172742E63000026
:10182000704700008307FF22DB0E9A408907090EEC
:10183000994000280BDA0007000F08388308084891
:101840009B001818C36993430B43C3617047830817
:1018500004489B001B1818689043084318607047A1
:1018600000ED00E000E400E07047000070B51749AB
:101870000023CA681206120F18D18A6B154CD500C6
:10188000134A02D51268224009E08E6B01252D070C
:101890002E438E6312688E6B2240AE438E63A2424B
:1018A00004D103218903884200D101230A48016839
:1018B00049084900194301600068C007C00F9842F9
:1018C00001D0012070BD002070BD0000001002405A
:1018D000007000400018000000200240704710B562
:1018E000FFF708F8FFF7F4FC10BD000010B523481F
:1018F0009AB001680322D2029143C2148918016090
:1019000001210220039110210090049109904004CC
:101910000B90000100240C900A946846FFF7BCFA73
:10192000002800D0FEE70F200D9003200E900F94AA
:101930001094012111940DA8FFF798F9002800D008
:10194000FEE7052012901494169412A8FFF7D2F81F
:10195000002800D0FEE7FFF73DFA7D21C900FEF721
:10196000C7FBFFF79DFC0420FFF78CFC002211460B
:10197000501EFFF711F81AB010BD000000700040B3
:1019800010480168821511430160C1680E4A114078
:10199000C16001680D4A1140016081684908490031
:1019A000816001680122920491430160C168FD22B7
:1019B00012049143C160002101610549C0038860A0
:1019C00070470000001002400C40FF88F6FFF6FE52
:1019D00000ED00E0F0B502680124A407124D134E9B
:1019E000134FA04205D0A84203D0B04201D0B84264
:1019F00004D11346702293434A681A43A04205D08B
:101A0000A84203D0B04201D0B84204D103231B0244
:101A10009A43CB681A4302608A68C262096881628D
:101A200001214161F0BD00000004004000080140B8
:101A30000014014010B5818CC90707D001684A68BD
:101A400001235B049A43836A1A434A60818C8907A5
:101A500007D501684A6801231B049A43C36A1A43E5
:101A60004A60818C490707D501684A6801239B04B5
:101A70009A43036B1A434A60818C090707D50168B2
:101A80004A680123DB039A43436B1A434A60818C03
:101A9000C90607D50268916801231B039943836B2C
:101AA00019439160818C890607D501688A680123F2
:101AB0005B039A43C36B1A438A60818C490612D533
:101AC00003685A6801210905046C8A4322435A605D
:101AD000026C8A4207D10268516803235B0599436F
:101AE000436C19435160818C090607D501684A6827
:101AF0000123DB04806C9A4302434A6010BD00005E
:101B0000F8B500260446C666FEF7EEFE05462068D8
:101B10000068124F000709D501212B460022490514
:101B20002046009700F0BFF900280DD1206800681A
:101B300040070BD501212B4600228905204600973E
:101B400000F0B1F9002801D00320F8BD2020603456
:101B50006072A07226720020F8BD0000FFFFFF0136
:101B600010B5806A0022014640314A834A82FFF75D
:101B700020FC10BD01680A68FF2321339A430A60E4
:101B800001688A68520852008A60202160308172A0
:101B9000704770B50246403201466031938B8D7AB2
:101BA0000C460168222D05D08869082210438861FF
:101BB000022070BD496A01268568360389B2B542A4
:101BC00002D10569002D0BD01940436D5D1C4565A0
:101BD0001970518B491E0904090C518307D015E077
:101BE000456D19402980416D891C4165F1E7016807
:101BF0000A68FF2321339A430A6001688A68520801
:101C000052008A602021A172FFF7F0FC002070BD15
:101C1000FEB50446016880682269E3691043626981
:101C2000102700261A4310430A683546784B1A409D
:101C300002430A6020684168032212039143E2686C
:101C400011434160734A2168A069914201D0226A20
:101C500010438A680B231B029A4302438A606E4A30
:101C600020686E4990420CD1C8688007800F06D06A
:101C7000012843D002283FD0032826D124E00127A1
:101C800023E0674A90420AD1C8680C21084031D04D
:101C9000042833D008282FD00C2816D114E0614A2C
:101CA000904227D0604A904224D05A4A90420CD1A8
:101CB000C9680320800201401CD01015091A1DD0EC
:101CC000091A19D0814200D108270220FEF768FEC8
:101CD0000190504B514922684039D81300929A42E2
:101CE00035D1002F0CD0022F0DD0042F12D0082F89
:101CF0001CD113E00027E8E70227E6E70427E4E722
:101D0000FFF76EF808E00868C00601D5474805E00F
:101D1000474803E0FFF784F8002873D06268510059
:101D20005118814202D81103814201D2012569E094
:101D3000010E06025008002330185941FEF7EEF953
:101D4000032109023B4A411A914259D9EEE7E2695F
:101D500082422DD13B0000F008F90906080B241936
:101D60002424241F2400019812E0FFF749F80FE013
:101D700008686168C00602D548082F4A01E02F4A6A
:101D800048088018FEF7B4F986B20BE0FFF748F870
:101D9000616840004A08F4E76168012248081204BB
:101DA000EFE70125310909013007400F084327E01B
:101DB0003B0000F0DAF809070A0D061D06060629A1
:101DC0000600B3E7FFF70CF814E0FFF719F811E08D
:101DD00008686168C00602D54A08144801E0144842
:101DE0004A081018FEF784F981B20098C16009E032
:101DF000FFF716F861684A088018FEF779F980B293
:101E00002168C8602846FEBD61684A08E9E700000D
:101E1000F369FFEF004800400038014040100240E5
:101E200000440040004C00400050004000093D00CC
:101E30000024F400FFFC0F0000127A000048E801C3
:101E40006921095C212901D00220704702464032F5
:101E5000518A002912D0012381681B03994202D1C3
:101E60000169002915D0C16C4B1CC3640068097856
:101E70008162508A401E50820020704701680A68C3
:101E800080239A430A600068016840221143016080
:101E9000F2E7C16C03680988C905C90D9962C16C74
:101EA000891CC164E5E7FFB581B017460E460446BC
:101EB0000A9D1DE0681C1BD0002D05D0FEF714FD07
:101EC0000499401AA84213D920680168FF22A13260
:101ED00091430160206881684908490081602020A1
:101EE00060346072A07200202072032005B0F0BD43
:101EF0002068C1693046884304D00020B842D9D058
:101F00000020F3E70120F9E710B50248FFF752FA85
:101F100010BD00007C000020FEE700000FB410B5EB
:101F200003A9044B044A029800F0F6F810BC08BC60
:101F300004B0184751280008080000202021020C96
:101F400001D010211046020A01D0104608390209BA
:101F500001D01046091F820801D01046891E420890
:101F600001D0881E7047081A704730B47446641E4A
:101F70002578641CAB4200D21D46635D5B00E3180C
:101F800030BC184702E008C8121F08C1002AFAD165
:101F900070477047002001E001C1121F002AFBD1E9
:101FA00070470000F0B51FB486B00998089A030D79
:101FB0000021024314D05148514A181850430514C7
:101FC0001198012810981AD0281A401C00264D4F4D
:101FD0004D49009601910490002812DA444211E024
:101FE0001198012449A3012801D11098C1430698F2
:101FF000119A84600360C26041600BB0F0BD404242
:10200000E4E70446210500203F4A001C51410391AA
:10201000029012E0E00707D032463B460199009853
:10202000FEF7ACF80191009032463B461046194647
:10203000FEF7A4F806460F466410002CEAD1049877
:10204000039B0028029A0999089806DAFEF796F889
:10205000019B009AFEF792F805E0FEF7F7F8019B66
:10206000009AFEF7F3F804460E460022284BFEF7CE
:10207000DBFA03D80020C043014607E00022254BCD
:1020800020463146FEF7FEF9FEF7AEFA102409E0CD
:10209000002C0ADB0A220023FEF740F8079B3032AF
:1020A0001A55641E02460A43F2D11122641C079B92
:1020B000121B1C19119B012B03D0012308430ED1C5
:1020C0000AE0084304D0112010900020119077E717
:1020D0001098151A6D1E0BE01098824202DD002345
:1020E0006D1C03E0824201DA00236D1E002BEED04E
:1020F000069811998260C16030C07EE701FCFFFF45
:10210000104D0000000014400000F03F30000000BF
:102110000000F0430000E03FFFB597B00646002501
:1021200018E2252877D100242746FD49049400E0D1
:102130000443761C32780120203A90400842F7D1BF
:1021400030782A280ED00222307801463039092909
:1021500016D804990A235943303940181443761C81
:102160000490F1E7189802C804911890002904DA45
:102170000120400304434842049002200443761C9B
:1021800030782E2814D1042004437078761C2A2835
:1021900009D11898761C80C8189009E00A214F438D
:1021A000303FC719761C3078014630390929F5D9F6
:1021B00030786C2810D006DC4C281AD068280ED055
:1021C0006A2817D104E0742813D07A2812D110E0BD
:1021D0000120400504430CE00121090501E0032131
:1021E00009050C437178814203D1012000052418B0
:1021F000761C761C3078119066280BD013DC58289A
:102200007DD009DC00287BD04528F6D04628F4D0C4
:1022100047281AD1A5E118E0632835D0642870D08A
:10222000652812D19DE170286CD008DC6728F1D0B8
:1022300069287BD06E280DD06F2806D1BAE07328AC
:102240002ED0752871D0782859D01A9A19999047AC
:102250006D1C7EE16002400F022809D003280DD0DA
:102260000428189801680DD00D60001D189070E1C9
:102270001898EA1701680D604A60F6E71898016837
:102280000D80F2E70D70F0E718986A460178117238
:10229000001D18900020507202A80090012005E057
:1022A000189802C8189000200091C04361070DD50E
:1022B000002101E00199491C0191B94212DA8142E1
:1022C000F8DB009A515C0029F4D10BE0002101E019
:1022D0000199491C01918142FADB019A0099895CBC
:1022E0000029F5D1019904981A9B471A21463846CE
:1022F000199A00F097FA0199401945180BE04FE040
:102300002CE113E04EE0009800990078491C009100
:102310001A9A199990470198401E0190401CF2D1D9
:10232000214638461A9B199A10E137E00A2000210D
:10233000009001916002410F022907D0189A01CA4A
:102340001892C2179446032908D00AE01898C01DB5
:10235000C108C90005C91891944607E000B2C21728
:102360009446042902D140B2C1178C46002261462E
:10237000944506DA0A460021404291418C462D21BF
:1023800002E0210504D52B216A461173012103E0E7
:10239000E10701D02021F7E7029155E00A200AE089
:1023A000102008E010200090002104200443019137
:1023B000082703E008200021019100906002410FEE
:1023C000022907D0189A01CA1892002294460329BC
:1023D00008D008E01898C01DC108C90005C91891A7
:1023E000944603E080B2042900D1C0B200210291DA
:1023F000210729D51199702906D0009A1021019B37
:102400004A401A4305D00EE040216A46117301216B
:1024100008E06146014306D030216A4611731199E4
:10242000517302210291009A0821019B4A401A43EC
:102430000AD16146014301D1610705D530216A46C1
:10244000117301217F1E02911199582904D035A1E1
:102450000E910DA90D910DE037A1F9E76146019BA1
:10246000009AFDF75BFE0E9B8C469B5C0D9A521EFC
:102470000D92137061460143F0D10D9805A9081A19
:1024800020300190600703D501200004844300E060
:1024900001270198874201DD381A00E000200199E8
:1024A00000904118029809180498401A0490E0031B
:1024B00006D421461A9B199A049800F0B3F94519DD
:1024C000002706E003A81A9AC05D199990476D1C71
:1024D0007F1C02988742F5DBE0030CD521461A9B4E
:1024E000199A049800F09EF9451904E01A9A3020D0
:1024F000199990476D1C0099481E00900029F5DC41
:1025000008E00D980D990078491C0D911A9A1999B7
:1025100090476D1C0199481E01900029F1DC63E190
:1025200009280100303132333435363738396162A9
:10253000636465660000000030313233343536376D
:1025400038394142434445460000000000F05AF942
:102550004519761C3078002800D0E2E528461BB0EB
:10256000F0BD600700D406271898C01DC108C90037
:1025700048680A680831C30FDB071891190001D0B9
:102580009CA108E0210501D59BA104E0E10701D051
:102590009AA100E09AA1430011985B081091652868
:1025A0000CD006DC452809D046281DD0472841D14B
:1025B00041E0662818D067283CD13CE00021112F6B
:1025C00001DB112000E0781C0191009008A911A8FE
:1025D000FFF7E8FC139905910021119A15927F1CD1
:1025E00012980197009150E00120C007039001204C
:1025F000019008A9009711A8FFF7D4FC139A149929
:1026000005920022119B009212981593059A01924F
:10261000002901D0104602E0791C40180190381AB8
:1026200001D5019804E04042401E0090781C0190C2
:10263000C01B029043E0012F00DA01270021112F77
:1026400001DD112000E038460191009008A911A891
:10265000FFF7A8FC13990591119A00211298159281
:102660000091019721070CD40599B94201DB01992A
:1026700000E00191012904DD159A491E515C3029C1
:1026800006D0B84201DA011D05DA0121029115E0F8
:102690000199491EEDE7002805DC009941180091D9
:1026A0000199091A03E0019A411C914200DD019150
:1026B0000099401A401C02900120C0070390200797
:1026C00006D402990198814202DB0020C0430290A7
:1026D00000206946C87707AF012103980337C9076F
:1026E000884224D0022011902B20129003980028B9
:1026F0000CDA404203902D20129007E00A21039843
:10270000FDF7F6FC30317F1E039039701199481E99
:1027100011900029F2DC03980028EFD1791E12985D
:1027200008703078202108404530BF1E387006A858
:10273000C01BC01D039010980078002800D0012015
:10274000019941180298C0170918039809180498AC
:10275000401A401E0490E00306D421461A9B199AA1
:10276000049800F05FF8451910980078002803D00D
:102770001A9A199990476D1CE00324D521461A9B9B
:10278000199A049800F04EF845191CE000980028AA
:1027900007DB00990598884203DD1598405C19997C
:1027A00001E0199930201A9A904700986D1C401C3E
:1027B00000900298401E0290002804D11A9A2E2000
:1027C000199990476D1C0199481E01900029DDDC84
:1027D00005E038781A9A7F1C199990476D1C039967
:1027E000481E03900029F4DC21461A9B199A04988C
:1027F000ACE600002D0000002B00000020000000CF
:1028000000000000F8B5044600251E46174688045F
:1028100004D405E039462020B0476D1C641EF9D56C
:102820002846F8BDFFB50446002581B01E46C80302
:1028300001D5302700E02027880404D505E038467C
:102840000399B0476D1C641EF9D5284605B0F0BD4C
:1028500013B5044B012269460348FEF7C8FE0098F1
:102860001CBD0000FFFF00007C00002070B5234D60
:1028700000202968486229682148C862214CE86024
:10288000012210212046FEF728F86420FDF752FFB0
:10289000002210212046FEF720F820212046FEF7D6
:1028A00017F80028F9D01548FEF762FD20212046D0
:1028B000FEF70EF80128F9D01048FEF765FD2868EC
:1028C000406AFDF751FD044602460D460B460EA038
:1028D000FFF724FB0022124B20462946FDF74EFC51
:1028E0000022104BFDF74AFC00220F4BFDF7AEFC17
:1028F0000022D243FDF722FD70BD0000EC00002055
:102900009F0F0000000400500ABCC6CAFDC6F7BCF9
:10291000C6CAFDB5C4B4CECAFD3A256C660A00002D
:1029200000002440004075400088C340FDF7EAFFE6
:10293000FEF7DCFFFEF7CAFEFEF7F8FEFEF74AFFE1
:10294000FEF71AFF09A0FFF7E9FA7D24E40007A0CB
:10295000FFF7E4FAFFF78AFF02460B4606A0FFF7EF
:10296000DDFA2046FDF7E6FEF1E700000A0D2048FB
:10297000454C4C4F200A0D00BEE0C0EB3A252E32EC
:102980006C66636D000000000000000000000000A5
:102990000102030406070809030406080C101820A6
:1029A000300000000001020304000000CC290008F0
:1029B000000000200C000000841F0008D829000837
:1029C0000C0000201C050000941F000800000000FF
:0829D00080841E0000000000DD
:04000005080000C12E
:00000001FF
